{
  "abi": [
    {
      "inputs": [
        {
          "internalType": "string",
          "name": "_projectName",
          "type": "string"
        },
        {
          "internalType": "address payable",
          "name": "_projectStarter",
          "type": "address"
        },
        {
          "internalType": "uint256",
          "name": "_fundingEndTime",
          "type": "uint256"
        },
        {
          "internalType": "uint256",
          "name": "_fundTarget",
          "type": "uint256"
        },
        {
          "internalType": "uint256",
          "name": "_projectEndTime",
          "type": "uint256"
        }
      ],
      "stateMutability": "nonpayable",
      "type": "constructor"
    },
    {
      "anonymous": false,
      "inputs": [
        {
          "indexed": true,
          "internalType": "address",
          "name": "previousOwner",
          "type": "address"
        },
        {
          "indexed": true,
          "internalType": "address",
          "name": "newOwner",
          "type": "address"
        }
      ],
      "name": "OwnershipTransferred",
      "type": "event"
    },
    {
      "inputs": [
        {
          "internalType": "uint256",
          "name": "amount",
          "type": "uint256"
        }
      ],
      "name": "deposit",
      "outputs": [],
      "stateMutability": "payable",
      "type": "function"
    },
    {
      "inputs": [],
      "name": "detailsProject",
      "outputs": [
        {
          "internalType": "string",
          "name": "Name",
          "type": "string"
        },
        {
          "internalType": "address",
          "name": "Starter",
          "type": "address"
        },
        {
          "internalType": "uint256",
          "name": "Target",
          "type": "uint256"
        },
        {
          "internalType": "uint256",
          "name": "Balance",
          "type": "uint256"
        }
      ],
      "stateMutability": "view",
      "type": "function"
    },
    {
      "inputs": [],
      "name": "owner",
      "outputs": [
        {
          "internalType": "address",
          "name": "",
          "type": "address"
        }
      ],
      "stateMutability": "view",
      "type": "function"
    },
    {
      "inputs": [
        {
          "internalType": "uint256",
          "name": "amount",
          "type": "uint256"
        }
      ],
      "name": "payOut",
      "outputs": [
        {
          "internalType": "bool",
          "name": "success",
          "type": "bool"
        }
      ],
      "stateMutability": "nonpayable",
      "type": "function"
    },
    {
      "inputs": [],
      "name": "renounceOwnership",
      "outputs": [],
      "stateMutability": "nonpayable",
      "type": "function"
    },
    {
      "inputs": [],
      "name": "stopProject",
      "outputs": [],
      "stateMutability": "nonpayable",
      "type": "function"
    },
    {
      "inputs": [
        {
          "internalType": "address",
          "name": "newOwner",
          "type": "address"
        }
      ],
      "name": "transferOwnership",
      "outputs": [],
      "stateMutability": "nonpayable",
      "type": "function"
    },
    {
      "inputs": [
        {
          "internalType": "address",
          "name": "",
          "type": "address"
        }
      ],
      "name": "userDeposit",
      "outputs": [
        {
          "internalType": "uint256",
          "name": "",
          "type": "uint256"
        }
      ],
      "stateMutability": "view",
      "type": "function"
    },
    {
      "inputs": [],
      "name": "withdrawFunds",
      "outputs": [
        {
          "internalType": "bool",
          "name": "success",
          "type": "bool"
        }
      ],
      "stateMutability": "nonpayable",
      "type": "function"
    }
  ],
  "bytecode": "60806040523480156200001157600080fd5b5060405162000a4438038062000a448339810160408190526200003491620001a9565b6200003f3362000096565b845162000054906002906020880190620000e6565b50600380546001600160a01b0319166001600160a01b03959095169490941790935560059190915560065560095550600a805460ff1916600117905562000308565b600080546001600160a01b038381166001600160a01b0319831681178455604051919092169283917f8be0079c531659141344cd1fd0a4f28419497f9722a3daafe3b4186f6b6457e09190a35050565b828054620000f490620002b5565b90600052602060002090601f01602090048101928262000118576000855562000163565b82601f106200013357805160ff191683800117855562000163565b8280016001018555821562000163579182015b828111156200016357825182559160200191906001019062000146565b506200017192915062000175565b5090565b5b8082111562000171576000815560010162000176565b80516001600160a01b0381168114620001a457600080fd5b919050565b600080600080600060a08688031215620001c257600080fd5b85516001600160401b0380821115620001da57600080fd5b818801915088601f830112620001ef57600080fd5b815181811115620002045762000204620002f2565b604051601f8201601f19908116603f011681019083821181831017156200022f576200022f620002f2565b81604052828152602093508b848487010111156200024c57600080fd5b600091505b8282101562000270578482018401518183018501529083019062000251565b82821115620002825760008484830101525b9850620002949150508882016200018c565b604089015160608a01516080909a0151989b919a5098979650945050505050565b600181811c90821680620002ca57607f821691505b60208210811415620002ec57634e487b7160e01b600052602260045260246000fd5b50919050565b634e487b7160e01b600052604160045260246000fd5b61072c80620003186000396000f3fe6080604052600436106100865760003560e01c8063a307c2ee11610059578063a307c2ee14610109578063b6b55f251461012e578063d1260edd14610141578063da333ca61461017c578063f2fde38b1461019c57600080fd5b806324600fc31461008b57806338667aa7146100b5578063715018a6146100cc5780638da5cb5b146100e1575b600080fd5b34801561009757600080fd5b506100a06101bc565b60405190151581526020015b60405180910390f35b3480156100c157600080fd5b506100ca610219565b005b3480156100d857600080fd5b506100ca610257565b3480156100ed57600080fd5b506000546040516001600160a01b0390911681526020016100ac565b34801561011557600080fd5b5061011e61028d565b6040516100ac94939291906105cb565b6100ca61013c3660046105b2565b610341565b34801561014d57600080fd5b5061016e61015c366004610582565b60016020526000908152604090205481565b6040519081526020016100ac565b34801561018857600080fd5b506100a06101973660046105b2565b610420565b3480156101a857600080fd5b506100ca6101b7366004610582565b610497565b3360009081526001602052604081208054600b81905590826101de838061068e565b9091555050600b54604051339180156108fc02916000818181858888f19350505050158015610211573d6000803e3d6000fd5b506001905090565b6000546001600160a01b0316331461024c5760405162461bcd60e51b815260040161024390610641565b60405180910390fd5b426005819055600955565b6000546001600160a01b031633146102815760405162461bcd60e51b815260040161024390610641565b61028b6000610532565b565b60606000806000600280546102a1906106a5565b80601f01602080910402602001604051908101604052809291908181526020018280546102cd906106a5565b801561031a5780601f106102ef5761010080835404028352916020019161031a565b820191906000526020600020905b8154815290600101906020018083116102fd57829003601f168201915b5050600354600654600754959a6001600160a01b0390921699509750939550929350505050565b42600554116103825760405162461bcd60e51b815260206004820152600d60248201526c119d5b991a5b99c8195b991959609a1b6044820152606401610243565b600654816007546103939190610676565b106103e05760405162461bcd60e51b815260206004820152601e60248201527f616d6f756e7420686967686572207468616e2066756e642074617267657400006044820152606401610243565b33600090815260016020526040812080548392906103ff908490610676565b9250508190555080600760008282546104189190610676565b909155505050565b6003546000906001600160a01b0316331461043a57600080fd5b426005541061044857600080fd5b6007805460009182905560035460405191926001600160a01b039091169185156108fc0291869190818181858888f1935050505015801561048d573d6000803e3d6000fd5b5060019392505050565b6000546001600160a01b031633146104c15760405162461bcd60e51b815260040161024390610641565b6001600160a01b0381166105265760405162461bcd60e51b815260206004820152602660248201527f4f776e61626c653a206e6577206f776e657220697320746865207a65726f206160448201526564647265737360d01b6064820152608401610243565b61052f81610532565b50565b600080546001600160a01b038381166001600160a01b0319831681178455604051919092169283917f8be0079c531659141344cd1fd0a4f28419497f9722a3daafe3b4186f6b6457e09190a35050565b60006020828403121561059457600080fd5b81356001600160a01b03811681146105ab57600080fd5b9392505050565b6000602082840312156105c457600080fd5b5035919050565b608081526000855180608084015260005b818110156105f957602081890181015160a08684010152016105dc565b8181111561060b57600060a083860101525b50601f01601f1916820160a001905061062f60208301866001600160a01b03169052565b60408201939093526060015292915050565b6020808252818101527f4f776e61626c653a2063616c6c6572206973206e6f7420746865206f776e6572604082015260600190565b60008219821115610689576106896106e0565b500190565b6000828210156106a0576106a06106e0565b500390565b600181811c908216806106b957607f821691505b602082108114156106da57634e487b7160e01b600052602260045260246000fd5b50919050565b634e487b7160e01b600052601160045260246000fdfea264697066735822122070c4ad1f37f0decca2685ec49fd1ae7006b185938b7d6c9eee138d408cf9fd0764736f6c63430008070033",
  "bytecodeSha1": "6faf247adc387e8f3eda6fe56ca548152e9baa8b",
  "compiler": {
    "evm_version": "istanbul",
    "optimizer": {
      "enabled": true,
      "runs": 200
    },
    "version": "0.8.7+commit.e28d00a7"
  },
  "contractName": "Project",
  "language": "Solidity",
  "natspec": {
    "kind": "dev",
    "methods": {
      "owner()": {
        "details": "Returns the address of the current owner."
      },
      "renounceOwnership()": {
        "details": "Leaves the contract without owner. It will not be possible to call `onlyOwner` functions anymore. Can only be called by the current owner. NOTE: Renouncing ownership will leave the contract without an owner, thereby removing any functionality that is only available to the owner."
      },
      "transferOwnership(address)": {
        "details": "Transfers ownership of the contract to a new account (`newOwner`). Can only be called by the current owner."
      }
    },
    "version": 1
  },
  "opcodes": "PUSH1 0x80 PUSH1 0x40 MSTORE PUSH1 0x4 CALLDATASIZE LT PUSH2 0x86 JUMPI PUSH1 0x0 CALLDATALOAD PUSH1 0xE0 SHR DUP1 PUSH4 0xA307C2EE GT PUSH2 0x59 JUMPI DUP1 PUSH4 0xA307C2EE EQ PUSH2 0x109 JUMPI DUP1 PUSH4 0xB6B55F25 EQ PUSH2 0x12E JUMPI DUP1 PUSH4 0xD1260EDD EQ PUSH2 0x141 JUMPI DUP1 PUSH4 0xDA333CA6 EQ PUSH2 0x17C JUMPI DUP1 PUSH4 0xF2FDE38B EQ PUSH2 0x19C JUMPI PUSH1 0x0 DUP1 REVERT JUMPDEST DUP1 PUSH4 0x24600FC3 EQ PUSH2 0x8B JUMPI DUP1 PUSH4 0x38667AA7 EQ PUSH2 0xB5 JUMPI DUP1 PUSH4 0x715018A6 EQ PUSH2 0xCC JUMPI DUP1 PUSH4 0x8DA5CB5B EQ PUSH2 0xE1 JUMPI JUMPDEST PUSH1 0x0 DUP1 REVERT JUMPDEST CALLVALUE DUP1 ISZERO PUSH2 0x97 JUMPI PUSH1 0x0 DUP1 REVERT JUMPDEST POP PUSH2 0xA0 PUSH2 0x1BC JUMP JUMPDEST PUSH1 0x40 MLOAD SWAP1 ISZERO ISZERO DUP2 MSTORE PUSH1 0x20 ADD JUMPDEST PUSH1 0x40 MLOAD DUP1 SWAP2 SUB SWAP1 RETURN JUMPDEST CALLVALUE DUP1 ISZERO PUSH2 0xC1 JUMPI PUSH1 0x0 DUP1 REVERT JUMPDEST POP PUSH2 0xCA PUSH2 0x219 JUMP JUMPDEST STOP JUMPDEST CALLVALUE DUP1 ISZERO PUSH2 0xD8 JUMPI PUSH1 0x0 DUP1 REVERT JUMPDEST POP PUSH2 0xCA PUSH2 0x257 JUMP JUMPDEST CALLVALUE DUP1 ISZERO PUSH2 0xED JUMPI PUSH1 0x0 DUP1 REVERT JUMPDEST POP PUSH1 0x0 SLOAD PUSH1 0x40 MLOAD PUSH1 0x1 PUSH1 0x1 PUSH1 0xA0 SHL SUB SWAP1 SWAP2 AND DUP2 MSTORE PUSH1 0x20 ADD PUSH2 0xAC JUMP JUMPDEST CALLVALUE DUP1 ISZERO PUSH2 0x115 JUMPI PUSH1 0x0 DUP1 REVERT JUMPDEST POP PUSH2 0x11E PUSH2 0x28D JUMP JUMPDEST PUSH1 0x40 MLOAD PUSH2 0xAC SWAP5 SWAP4 SWAP3 SWAP2 SWAP1 PUSH2 0x5CB JUMP JUMPDEST PUSH2 0xCA PUSH2 0x13C CALLDATASIZE PUSH1 0x4 PUSH2 0x5B2 JUMP JUMPDEST PUSH2 0x341 JUMP JUMPDEST CALLVALUE DUP1 ISZERO PUSH2 0x14D JUMPI PUSH1 0x0 DUP1 REVERT JUMPDEST POP PUSH2 0x16E PUSH2 0x15C CALLDATASIZE PUSH1 0x4 PUSH2 0x582 JUMP JUMPDEST PUSH1 0x1 PUSH1 0x20 MSTORE PUSH1 0x0 SWAP1 DUP2 MSTORE PUSH1 0x40 SWAP1 KECCAK256 SLOAD DUP2 JUMP JUMPDEST PUSH1 0x40 MLOAD SWAP1 DUP2 MSTORE PUSH1 0x20 ADD PUSH2 0xAC JUMP JUMPDEST CALLVALUE DUP1 ISZERO PUSH2 0x188 JUMPI PUSH1 0x0 DUP1 REVERT JUMPDEST POP PUSH2 0xA0 PUSH2 0x197 CALLDATASIZE PUSH1 0x4 PUSH2 0x5B2 JUMP JUMPDEST PUSH2 0x420 JUMP JUMPDEST CALLVALUE DUP1 ISZERO PUSH2 0x1A8 JUMPI PUSH1 0x0 DUP1 REVERT JUMPDEST POP PUSH2 0xCA PUSH2 0x1B7 CALLDATASIZE PUSH1 0x4 PUSH2 0x582 JUMP JUMPDEST PUSH2 0x497 JUMP JUMPDEST CALLER PUSH1 0x0 SWAP1 DUP2 MSTORE PUSH1 0x1 PUSH1 0x20 MSTORE PUSH1 0x40 DUP2 KECCAK256 DUP1 SLOAD PUSH1 0xB DUP2 SWAP1 SSTORE SWAP1 DUP3 PUSH2 0x1DE DUP4 DUP1 PUSH2 0x68E JUMP JUMPDEST SWAP1 SWAP2 SSTORE POP POP PUSH1 0xB SLOAD PUSH1 0x40 MLOAD CALLER SWAP2 DUP1 ISZERO PUSH2 0x8FC MUL SWAP2 PUSH1 0x0 DUP2 DUP2 DUP2 DUP6 DUP9 DUP9 CALL SWAP4 POP POP POP POP ISZERO DUP1 ISZERO PUSH2 0x211 JUMPI RETURNDATASIZE PUSH1 0x0 DUP1 RETURNDATACOPY RETURNDATASIZE PUSH1 0x0 REVERT JUMPDEST POP PUSH1 0x1 SWAP1 POP SWAP1 JUMP JUMPDEST PUSH1 0x0 SLOAD PUSH1 0x1 PUSH1 0x1 PUSH1 0xA0 SHL SUB AND CALLER EQ PUSH2 0x24C JUMPI PUSH1 0x40 MLOAD PUSH3 0x461BCD PUSH1 0xE5 SHL DUP2 MSTORE PUSH1 0x4 ADD PUSH2 0x243 SWAP1 PUSH2 0x641 JUMP JUMPDEST PUSH1 0x40 MLOAD DUP1 SWAP2 SUB SWAP1 REVERT JUMPDEST TIMESTAMP PUSH1 0x5 DUP2 SWAP1 SSTORE PUSH1 0x9 SSTORE JUMP JUMPDEST PUSH1 0x0 SLOAD PUSH1 0x1 PUSH1 0x1 PUSH1 0xA0 SHL SUB AND CALLER EQ PUSH2 0x281 JUMPI PUSH1 0x40 MLOAD PUSH3 0x461BCD PUSH1 0xE5 SHL DUP2 MSTORE PUSH1 0x4 ADD PUSH2 0x243 SWAP1 PUSH2 0x641 JUMP JUMPDEST PUSH2 0x28B PUSH1 0x0 PUSH2 0x532 JUMP JUMPDEST JUMP JUMPDEST PUSH1 0x60 PUSH1 0x0 DUP1 PUSH1 0x0 PUSH1 0x2 DUP1 SLOAD PUSH2 0x2A1 SWAP1 PUSH2 0x6A5 JUMP JUMPDEST DUP1 PUSH1 0x1F ADD PUSH1 0x20 DUP1 SWAP2 DIV MUL PUSH1 0x20 ADD PUSH1 0x40 MLOAD SWAP1 DUP2 ADD PUSH1 0x40 MSTORE DUP1 SWAP3 SWAP2 SWAP1 DUP2 DUP2 MSTORE PUSH1 0x20 ADD DUP3 DUP1 SLOAD PUSH2 0x2CD SWAP1 PUSH2 0x6A5 JUMP JUMPDEST DUP1 ISZERO PUSH2 0x31A JUMPI DUP1 PUSH1 0x1F LT PUSH2 0x2EF JUMPI PUSH2 0x100 DUP1 DUP4 SLOAD DIV MUL DUP4 MSTORE SWAP2 PUSH1 0x20 ADD SWAP2 PUSH2 0x31A JUMP JUMPDEST DUP3 ADD SWAP2 SWAP1 PUSH1 0x0 MSTORE PUSH1 0x20 PUSH1 0x0 KECCAK256 SWAP1 JUMPDEST DUP2 SLOAD DUP2 MSTORE SWAP1 PUSH1 0x1 ADD SWAP1 PUSH1 0x20 ADD DUP1 DUP4 GT PUSH2 0x2FD JUMPI DUP3 SWAP1 SUB PUSH1 0x1F AND DUP3 ADD SWAP2 JUMPDEST POP POP PUSH1 0x3 SLOAD PUSH1 0x6 SLOAD PUSH1 0x7 SLOAD SWAP6 SWAP11 PUSH1 0x1 PUSH1 0x1 PUSH1 0xA0 SHL SUB SWAP1 SWAP3 AND SWAP10 POP SWAP8 POP SWAP4 SWAP6 POP SWAP3 SWAP4 POP POP POP POP JUMP JUMPDEST TIMESTAMP PUSH1 0x5 SLOAD GT PUSH2 0x382 JUMPI PUSH1 0x40 MLOAD PUSH3 0x461BCD PUSH1 0xE5 SHL DUP2 MSTORE PUSH1 0x20 PUSH1 0x4 DUP3 ADD MSTORE PUSH1 0xD PUSH1 0x24 DUP3 ADD MSTORE PUSH13 0x119D5B991A5B99C8195B991959 PUSH1 0x9A SHL PUSH1 0x44 DUP3 ADD MSTORE PUSH1 0x64 ADD PUSH2 0x243 JUMP JUMPDEST PUSH1 0x6 SLOAD DUP2 PUSH1 0x7 SLOAD PUSH2 0x393 SWAP2 SWAP1 PUSH2 0x676 JUMP JUMPDEST LT PUSH2 0x3E0 JUMPI PUSH1 0x40 MLOAD PUSH3 0x461BCD PUSH1 0xE5 SHL DUP2 MSTORE PUSH1 0x20 PUSH1 0x4 DUP3 ADD MSTORE PUSH1 0x1E PUSH1 0x24 DUP3 ADD MSTORE PUSH32 0x616D6F756E7420686967686572207468616E2066756E64207461726765740000 PUSH1 0x44 DUP3 ADD MSTORE PUSH1 0x64 ADD PUSH2 0x243 JUMP JUMPDEST CALLER PUSH1 0x0 SWAP1 DUP2 MSTORE PUSH1 0x1 PUSH1 0x20 MSTORE PUSH1 0x40 DUP2 KECCAK256 DUP1 SLOAD DUP4 SWAP3 SWAP1 PUSH2 0x3FF SWAP1 DUP5 SWAP1 PUSH2 0x676 JUMP JUMPDEST SWAP3 POP POP DUP2 SWAP1 SSTORE POP DUP1 PUSH1 0x7 PUSH1 0x0 DUP3 DUP3 SLOAD PUSH2 0x418 SWAP2 SWAP1 PUSH2 0x676 JUMP JUMPDEST SWAP1 SWAP2 SSTORE POP POP POP JUMP JUMPDEST PUSH1 0x3 SLOAD PUSH1 0x0 SWAP1 PUSH1 0x1 PUSH1 0x1 PUSH1 0xA0 SHL SUB AND CALLER EQ PUSH2 0x43A JUMPI PUSH1 0x0 DUP1 REVERT JUMPDEST TIMESTAMP PUSH1 0x5 SLOAD LT PUSH2 0x448 JUMPI PUSH1 0x0 DUP1 REVERT JUMPDEST PUSH1 0x7 DUP1 SLOAD PUSH1 0x0 SWAP2 DUP3 SWAP1 SSTORE PUSH1 0x3 SLOAD PUSH1 0x40 MLOAD SWAP2 SWAP3 PUSH1 0x1 PUSH1 0x1 PUSH1 0xA0 SHL SUB SWAP1 SWAP2 AND SWAP2 DUP6 ISZERO PUSH2 0x8FC MUL SWAP2 DUP7 SWAP2 SWAP1 DUP2 DUP2 DUP2 DUP6 DUP9 DUP9 CALL SWAP4 POP POP POP POP ISZERO DUP1 ISZERO PUSH2 0x48D JUMPI RETURNDATASIZE PUSH1 0x0 DUP1 RETURNDATACOPY RETURNDATASIZE PUSH1 0x0 REVERT JUMPDEST POP PUSH1 0x1 SWAP4 SWAP3 POP POP POP JUMP JUMPDEST PUSH1 0x0 SLOAD PUSH1 0x1 PUSH1 0x1 PUSH1 0xA0 SHL SUB AND CALLER EQ PUSH2 0x4C1 JUMPI PUSH1 0x40 MLOAD PUSH3 0x461BCD PUSH1 0xE5 SHL DUP2 MSTORE PUSH1 0x4 ADD PUSH2 0x243 SWAP1 PUSH2 0x641 JUMP JUMPDEST PUSH1 0x1 PUSH1 0x1 PUSH1 0xA0 SHL SUB DUP2 AND PUSH2 0x526 JUMPI PUSH1 0x40 MLOAD PUSH3 0x461BCD PUSH1 0xE5 SHL DUP2 MSTORE PUSH1 0x20 PUSH1 0x4 DUP3 ADD MSTORE PUSH1 0x26 PUSH1 0x24 DUP3 ADD MSTORE PUSH32 0x4F776E61626C653A206E6577206F776E657220697320746865207A65726F2061 PUSH1 0x44 DUP3 ADD MSTORE PUSH6 0x646472657373 PUSH1 0xD0 SHL PUSH1 0x64 DUP3 ADD MSTORE PUSH1 0x84 ADD PUSH2 0x243 JUMP JUMPDEST PUSH2 0x52F DUP2 PUSH2 0x532 JUMP JUMPDEST POP JUMP JUMPDEST PUSH1 0x0 DUP1 SLOAD PUSH1 0x1 PUSH1 0x1 PUSH1 0xA0 SHL SUB DUP4 DUP2 AND PUSH1 0x1 PUSH1 0x1 PUSH1 0xA0 SHL SUB NOT DUP4 AND DUP2 OR DUP5 SSTORE PUSH1 0x40 MLOAD SWAP2 SWAP1 SWAP3 AND SWAP3 DUP4 SWAP2 PUSH32 0x8BE0079C531659141344CD1FD0A4F28419497F9722A3DAAFE3B4186F6B6457E0 SWAP2 SWAP1 LOG3 POP POP JUMP JUMPDEST PUSH1 0x0 PUSH1 0x20 DUP3 DUP5 SUB SLT ISZERO PUSH2 0x594 JUMPI PUSH1 0x0 DUP1 REVERT JUMPDEST DUP2 CALLDATALOAD PUSH1 0x1 PUSH1 0x1 PUSH1 0xA0 SHL SUB DUP2 AND DUP2 EQ PUSH2 0x5AB JUMPI PUSH1 0x0 DUP1 REVERT JUMPDEST SWAP4 SWAP3 POP POP POP JUMP JUMPDEST PUSH1 0x0 PUSH1 0x20 DUP3 DUP5 SUB SLT ISZERO PUSH2 0x5C4 JUMPI PUSH1 0x0 DUP1 REVERT JUMPDEST POP CALLDATALOAD SWAP2 SWAP1 POP JUMP JUMPDEST PUSH1 0x80 DUP2 MSTORE PUSH1 0x0 DUP6 MLOAD DUP1 PUSH1 0x80 DUP5 ADD MSTORE PUSH1 0x0 JUMPDEST DUP2 DUP2 LT ISZERO PUSH2 0x5F9 JUMPI PUSH1 0x20 DUP2 DUP10 ADD DUP2 ADD MLOAD PUSH1 0xA0 DUP7 DUP5 ADD ADD MSTORE ADD PUSH2 0x5DC JUMP JUMPDEST DUP2 DUP2 GT ISZERO PUSH2 0x60B JUMPI PUSH1 0x0 PUSH1 0xA0 DUP4 DUP7 ADD ADD MSTORE JUMPDEST POP PUSH1 0x1F ADD PUSH1 0x1F NOT AND DUP3 ADD PUSH1 0xA0 ADD SWAP1 POP PUSH2 0x62F PUSH1 0x20 DUP4 ADD DUP7 PUSH1 0x1 PUSH1 0x1 PUSH1 0xA0 SHL SUB AND SWAP1 MSTORE JUMP JUMPDEST PUSH1 0x40 DUP3 ADD SWAP4 SWAP1 SWAP4 MSTORE PUSH1 0x60 ADD MSTORE SWAP3 SWAP2 POP POP JUMP JUMPDEST PUSH1 0x20 DUP1 DUP3 MSTORE DUP2 DUP2 ADD MSTORE PUSH32 0x4F776E61626C653A2063616C6C6572206973206E6F7420746865206F776E6572 PUSH1 0x40 DUP3 ADD MSTORE PUSH1 0x60 ADD SWAP1 JUMP JUMPDEST PUSH1 0x0 DUP3 NOT DUP3 GT ISZERO PUSH2 0x689 JUMPI PUSH2 0x689 PUSH2 0x6E0 JUMP JUMPDEST POP ADD SWAP1 JUMP JUMPDEST PUSH1 0x0 DUP3 DUP3 LT ISZERO PUSH2 0x6A0 JUMPI PUSH2 0x6A0 PUSH2 0x6E0 JUMP JUMPDEST POP SUB SWAP1 JUMP JUMPDEST PUSH1 0x1 DUP2 DUP2 SHR SWAP1 DUP3 AND DUP1 PUSH2 0x6B9 JUMPI PUSH1 0x7F DUP3 AND SWAP2 POP JUMPDEST PUSH1 0x20 DUP3 LT DUP2 EQ ISZERO PUSH2 0x6DA JUMPI PUSH4 0x4E487B71 PUSH1 0xE0 SHL PUSH1 0x0 MSTORE PUSH1 0x22 PUSH1 0x4 MSTORE PUSH1 0x24 PUSH1 0x0 REVERT JUMPDEST POP SWAP2 SWAP1 POP JUMP JUMPDEST PUSH4 0x4E487B71 PUSH1 0xE0 SHL PUSH1 0x0 MSTORE PUSH1 0x11 PUSH1 0x4 MSTORE PUSH1 0x24 PUSH1 0x0 REVERT INVALID LOG2 PUSH5 0x6970667358 0x22 SLT KECCAK256 PUSH17 0xC4AD1F37F0DECCA2685EC49FD1AE7006B1 DUP6 SWAP4 DUP12 PUSH30 0x6C9EEE138D408CF9FD0764736F6C63430008070033000000000000000000 ",
  "sha1": "66ce8a60a6ffa03c99ed65aa2a5683f5acc7e5cc",
  "source": "// SPDX-License-Identifier: MIT\npragma solidity ^0.8.6;\n\nimport \"OpenZeppelin/openzeppelin-contracts@4.3.0/contracts/access/Ownable.sol\";\n\n//contract template for initiating a project\ncontract Project is Ownable {\n    mapping(address => uint256) public userDeposit;\n    //variable for projectname\n\n    \n    string projectName;\n    //variable for projectstarter (EOA projectstarter)\n    address payable projectStarter;\n    //starttime of fundingperiod (is this necessary?)\n    uint256 fundingStartTime;\n    //endtime of fundingperiod\n    uint256 fundingEndTime;\n    //Targetamount for funding\n    uint256 fundTarget;\n    //current balance of the project\n    uint256 currentBalance;\n    //starttime of projectperiod (starting after fundingperiod)\n    uint256 projectStartTime;\n    //endtime of the project\n    uint256 projectEndTime;\n    //is the project initialized succesful?\n    bool isInitialized;\n    //amount of supporter\n    uint256 amountUser;\n\n    //put owner in constructor to use for initializing project\n    constructor(\n        string memory _projectName, \n        address payable _projectStarter, \n        uint256 _fundingEndTime, \n        uint256 _fundTarget, \n        uint256 _projectEndTime\n        ) {\n\n        projectName = _projectName;\n        projectStarter = _projectStarter;\n        fundingEndTime = _fundingEndTime;\n        fundTarget = _fundTarget;\n        projectEndTime = _projectEndTime;\n        isInitialized = true;\n        \n    }\n\n    //q: correct use of constructor?\n    //q: double use of setting owner?\n\n\n    function deposit(uint256 amount) public payable{\n        require(fundingEndTime > block.timestamp, \"Funding ended\");\n        require(currentBalance + amount < fundTarget, \"amount higher than fund target\");\n\n        userDeposit[msg.sender] += amount;\n        currentBalance += amount;\n    }\n\n    //q: how to make storage of amounts that have been deposited before, to see if amount is greater than fundTarget - previous deposits\n    //q: re-entrancy guard necessary?\n\n    //emergency function to stop the funding (and stop the project)\n    function stopProject() public onlyOwner {\n        fundingEndTime = block.timestamp;\n        projectEndTime = block.timestamp;\n    }\n\n    //q: proper use of block.timestamp?\n\n    function detailsProject() public view returns (string memory Name,  address Starter, uint256 Target, uint256 Balance){\n        Name = projectName;\n        Starter = projectStarter;\n        Target = fundTarget;\n        Balance = currentBalance;\n        return (Name, Starter, Target, Balance);\n    } \n\n    //How to see these variables when calling function?\n\n    //function for returning the funds\n    function withdrawFunds() public returns(bool success) {   \n        require(userDeposit[msg.sender] >= 0);// guards up front\n        amountUser = userDeposit[msg.sender];\n        userDeposit[msg.sender] -= userDeposit[msg.sender];         // optimistic accounting\n        payable(msg.sender).transfer(amountUser);            // transfer\n        return true;\n        }\n \n\n    function payOut(uint amount) public returns(bool success) {\n        require(msg.sender == projectStarter);\n        require(fundingEndTime < block.timestamp);\n        \n        uint fundAmount = currentBalance;\n        currentBalance = 0;\n        projectStarter.transfer(amount);\n        return true;\n    }\n\n\n}",
  "sourcePath": "contracts/Project.sol",
  "type": "contract"
}